{
  "_format": "hh-sol-artifact-1",
  "contractName": "GameHouseV2",
  "sourceName": "mantle_contract/contracts/GameHouseV2.sol",
  "abi": [
    {
      "inputs": [
        {
          "internalType": "uint256",
          "name": "_minOdds",
          "type": "uint256"
        },
        {
          "internalType": "uint256",
          "name": "_reserveGames",
          "type": "uint256"
        }
      ],
      "stateMutability": "nonpayable",
      "type": "constructor"
    },
    {
      "anonymous": false,
      "inputs": [
        {
          "indexed": true,
          "internalType": "uint256",
          "name": "gameId",
          "type": "uint256"
        },
        {
          "indexed": true,
          "internalType": "address",
          "name": "player",
          "type": "address"
        },
        {
          "indexed": false,
          "internalType": "uint256",
          "name": "betPerRoom",
          "type": "uint256"
        },
        {
          "indexed": false,
          "internalType": "uint256",
          "name": "rooms",
          "type": "uint256"
        },
        {
          "indexed": false,
          "internalType": "uint256",
          "name": "exposure",
          "type": "uint256"
        },
        {
          "indexed": false,
          "internalType": "uint256",
          "name": "odds",
          "type": "uint256"
        }
      ],
      "name": "CandlePlaced",
      "type": "event"
    },
    {
      "anonymous": false,
      "inputs": [
        {
          "indexed": true,
          "internalType": "uint256",
          "name": "gameId",
          "type": "uint256"
        },
        {
          "indexed": true,
          "internalType": "address",
          "name": "player",
          "type": "address"
        },
        {
          "indexed": false,
          "internalType": "uint256",
          "name": "roomsWon",
          "type": "uint256"
        },
        {
          "indexed": false,
          "internalType": "uint256",
          "name": "payout",
          "type": "uint256"
        }
      ],
      "name": "CandleResolved",
      "type": "event"
    },
    {
      "anonymous": false,
      "inputs": [
        {
          "indexed": true,
          "internalType": "uint256",
          "name": "betId",
          "type": "uint256"
        },
        {
          "indexed": true,
          "internalType": "uint256",
          "name": "gameId",
          "type": "uint256"
        },
        {
          "indexed": true,
          "internalType": "address",
          "name": "player",
          "type": "address"
        },
        {
          "indexed": false,
          "internalType": "uint256",
          "name": "amount",
          "type": "uint256"
        },
        {
          "indexed": false,
          "internalType": "uint256",
          "name": "entryMultiplier",
          "type": "uint256"
        }
      ],
      "name": "CrashBuyIn",
      "type": "event"
    },
    {
      "anonymous": false,
      "inputs": [
        {
          "indexed": true,
          "internalType": "uint256",
          "name": "betId",
          "type": "uint256"
        },
        {
          "indexed": true,
          "internalType": "uint256",
          "name": "gameId",
          "type": "uint256"
        },
        {
          "indexed": true,
          "internalType": "address",
          "name": "player",
          "type": "address"
        },
        {
          "indexed": false,
          "internalType": "uint256",
          "name": "payout",
          "type": "uint256"
        },
        {
          "indexed": false,
          "internalType": "uint256",
          "name": "cashoutMultiplier",
          "type": "uint256"
        }
      ],
      "name": "CrashCashOut",
      "type": "event"
    },
    {
      "anonymous": false,
      "inputs": [
        {
          "indexed": true,
          "internalType": "uint256",
          "name": "gameId",
          "type": "uint256"
        },
        {
          "indexed": false,
          "internalType": "uint256",
          "name": "timestamp",
          "type": "uint256"
        }
      ],
      "name": "CrashGameRugged",
      "type": "event"
    },
    {
      "anonymous": false,
      "inputs": [
        {
          "indexed": false,
          "internalType": "uint256",
          "name": "amount",
          "type": "uint256"
        }
      ],
      "name": "HouseFunded",
      "type": "event"
    },
    {
      "anonymous": false,
      "inputs": [
        {
          "indexed": false,
          "internalType": "uint256",
          "name": "amount",
          "type": "uint256"
        }
      ],
      "name": "HouseWithdrawn",
      "type": "event"
    },
    {
      "anonymous": false,
      "inputs": [
        {
          "indexed": false,
          "internalType": "uint256",
          "name": "newMinOdds",
          "type": "uint256"
        }
      ],
      "name": "MinOddsUpdated",
      "type": "event"
    },
    {
      "anonymous": false,
      "inputs": [
        {
          "indexed": false,
          "internalType": "bool",
          "name": "isPaused",
          "type": "bool"
        }
      ],
      "name": "Paused",
      "type": "event"
    },
    {
      "anonymous": false,
      "inputs": [
        {
          "indexed": false,
          "internalType": "uint256",
          "name": "newReserveGames",
          "type": "uint256"
        }
      ],
      "name": "ReserveGamesUpdated",
      "type": "event"
    },
    {
      "inputs": [],
      "name": "BASE_ODDS",
      "outputs": [
        {
          "internalType": "uint256",
          "name": "",
          "type": "uint256"
        }
      ],
      "stateMutability": "view",
      "type": "function"
    },
    {
      "inputs": [],
      "name": "activeExposure",
      "outputs": [
        {
          "internalType": "uint256",
          "name": "",
          "type": "uint256"
        }
      ],
      "stateMutability": "view",
      "type": "function"
    },
    {
      "inputs": [
        {
          "internalType": "uint256",
          "name": "gameId",
          "type": "uint256"
        },
        {
          "internalType": "uint256",
          "name": "entryMultiplier",
          "type": "uint256"
        }
      ],
      "name": "buyIn",
      "outputs": [],
      "stateMutability": "payable",
      "type": "function"
    },
    {
      "inputs": [
        {
          "internalType": "uint256",
          "name": "singleGameExposure",
          "type": "uint256"
        }
      ],
      "name": "calculateOdds",
      "outputs": [
        {
          "internalType": "uint256",
          "name": "",
          "type": "uint256"
        }
      ],
      "stateMutability": "view",
      "type": "function"
    },
    {
      "inputs": [],
      "name": "candleGameId",
      "outputs": [
        {
          "internalType": "uint256",
          "name": "",
          "type": "uint256"
        }
      ],
      "stateMutability": "view",
      "type": "function"
    },
    {
      "inputs": [
        {
          "internalType": "uint256",
          "name": "",
          "type": "uint256"
        }
      ],
      "name": "candleGames",
      "outputs": [
        {
          "internalType": "address",
          "name": "player",
          "type": "address"
        },
        {
          "internalType": "uint256",
          "name": "betPerRoom",
          "type": "uint256"
        },
        {
          "internalType": "uint256",
          "name": "rooms",
          "type": "uint256"
        },
        {
          "internalType": "uint256",
          "name": "exposure",
          "type": "uint256"
        },
        {
          "internalType": "uint256",
          "name": "odds",
          "type": "uint256"
        },
        {
          "internalType": "uint256",
          "name": "roomsWon",
          "type": "uint256"
        },
        {
          "internalType": "enum GameHouseV2.CandleFlipState",
          "name": "state",
          "type": "uint8"
        }
      ],
      "stateMutability": "view",
      "type": "function"
    },
    {
      "inputs": [
        {
          "internalType": "uint256",
          "name": "gameId",
          "type": "uint256"
        },
        {
          "internalType": "uint256",
          "name": "currentMultiplier",
          "type": "uint256"
        }
      ],
      "name": "cashOut",
      "outputs": [],
      "stateMutability": "nonpayable",
      "type": "function"
    },
    {
      "inputs": [],
      "name": "crashBetId",
      "outputs": [
        {
          "internalType": "uint256",
          "name": "",
          "type": "uint256"
        }
      ],
      "stateMutability": "view",
      "type": "function"
    },
    {
      "inputs": [
        {
          "internalType": "uint256",
          "name": "",
          "type": "uint256"
        }
      ],
      "name": "crashBets",
      "outputs": [
        {
          "internalType": "address",
          "name": "player",
          "type": "address"
        },
        {
          "internalType": "uint256",
          "name": "gameId",
          "type": "uint256"
        },
        {
          "internalType": "uint256",
          "name": "betAmount",
          "type": "uint256"
        },
        {
          "internalType": "uint256",
          "name": "entryMultiplier",
          "type": "uint256"
        },
        {
          "internalType": "uint256",
          "name": "cashoutMultiplier",
          "type": "uint256"
        },
        {
          "internalType": "enum GameHouseV2.CrashBetState",
          "name": "state",
          "type": "uint8"
        },
        {
          "internalType": "uint256",
          "name": "payout",
          "type": "uint256"
        }
      ],
      "stateMutability": "view",
      "type": "function"
    },
    {
      "inputs": [
        {
          "internalType": "uint256",
          "name": "",
          "type": "uint256"
        }
      ],
      "name": "crashGameRugged",
      "outputs": [
        {
          "internalType": "bool",
          "name": "",
          "type": "bool"
        }
      ],
      "stateMutability": "view",
      "type": "function"
    },
    {
      "inputs": [],
      "name": "fundHouse",
      "outputs": [],
      "stateMutability": "payable",
      "type": "function"
    },
    {
      "inputs": [
        {
          "internalType": "address",
          "name": "player",
          "type": "address"
        },
        {
          "internalType": "uint256",
          "name": "gameId",
          "type": "uint256"
        }
      ],
      "name": "getActiveCrashBet",
      "outputs": [
        {
          "internalType": "uint256",
          "name": "",
          "type": "uint256"
        }
      ],
      "stateMutability": "view",
      "type": "function"
    },
    {
      "inputs": [],
      "name": "getAvailableBalance",
      "outputs": [
        {
          "internalType": "uint256",
          "name": "",
          "type": "uint256"
        }
      ],
      "stateMutability": "view",
      "type": "function"
    },
    {
      "inputs": [
        {
          "internalType": "uint256",
          "name": "gameId",
          "type": "uint256"
        }
      ],
      "name": "getCandleGame",
      "outputs": [
        {
          "components": [
            {
              "internalType": "address",
              "name": "player",
              "type": "address"
            },
            {
              "internalType": "uint256",
              "name": "betPerRoom",
              "type": "uint256"
            },
            {
              "internalType": "uint256",
              "name": "rooms",
              "type": "uint256"
            },
            {
              "internalType": "uint256",
              "name": "exposure",
              "type": "uint256"
            },
            {
              "internalType": "uint256",
              "name": "odds",
              "type": "uint256"
            },
            {
              "internalType": "uint256",
              "name": "roomsWon",
              "type": "uint256"
            },
            {
              "internalType": "enum GameHouseV2.CandleFlipState",
              "name": "state",
              "type": "uint8"
            }
          ],
          "internalType": "struct GameHouseV2.CandleFlipGame",
          "name": "",
          "type": "tuple"
        }
      ],
      "stateMutability": "view",
      "type": "function"
    },
    {
      "inputs": [
        {
          "internalType": "uint256",
          "name": "betId",
          "type": "uint256"
        }
      ],
      "name": "getCrashBet",
      "outputs": [
        {
          "components": [
            {
              "internalType": "address",
              "name": "player",
              "type": "address"
            },
            {
              "internalType": "uint256",
              "name": "gameId",
              "type": "uint256"
            },
            {
              "internalType": "uint256",
              "name": "betAmount",
              "type": "uint256"
            },
            {
              "internalType": "uint256",
              "name": "entryMultiplier",
              "type": "uint256"
            },
            {
              "internalType": "uint256",
              "name": "cashoutMultiplier",
              "type": "uint256"
            },
            {
              "internalType": "enum GameHouseV2.CrashBetState",
              "name": "state",
              "type": "uint8"
            },
            {
              "internalType": "uint256",
              "name": "payout",
              "type": "uint256"
            }
          ],
          "internalType": "struct GameHouseV2.CrashBet",
          "name": "",
          "type": "tuple"
        }
      ],
      "stateMutability": "view",
      "type": "function"
    },
    {
      "inputs": [],
      "name": "houseBalance",
      "outputs": [
        {
          "internalType": "uint256",
          "name": "",
          "type": "uint256"
        }
      ],
      "stateMutability": "view",
      "type": "function"
    },
    {
      "inputs": [
        {
          "internalType": "uint256",
          "name": "gameId",
          "type": "uint256"
        }
      ],
      "name": "isGameRugged",
      "outputs": [
        {
          "internalType": "bool",
          "name": "",
          "type": "bool"
        }
      ],
      "stateMutability": "view",
      "type": "function"
    },
    {
      "inputs": [
        {
          "internalType": "uint256",
          "name": "betId",
          "type": "uint256"
        }
      ],
      "name": "markBetAsRugged",
      "outputs": [],
      "stateMutability": "nonpayable",
      "type": "function"
    },
    {
      "inputs": [],
      "name": "minOdds",
      "outputs": [
        {
          "internalType": "uint256",
          "name": "",
          "type": "uint256"
        }
      ],
      "stateMutability": "view",
      "type": "function"
    },
    {
      "inputs": [],
      "name": "owner",
      "outputs": [
        {
          "internalType": "address",
          "name": "",
          "type": "address"
        }
      ],
      "stateMutability": "view",
      "type": "function"
    },
    {
      "inputs": [
        {
          "internalType": "bool",
          "name": "_paused",
          "type": "bool"
        }
      ],
      "name": "pause",
      "outputs": [],
      "stateMutability": "nonpayable",
      "type": "function"
    },
    {
      "inputs": [],
      "name": "paused",
      "outputs": [
        {
          "internalType": "bool",
          "name": "",
          "type": "bool"
        }
      ],
      "stateMutability": "view",
      "type": "function"
    },
    {
      "inputs": [
        {
          "internalType": "uint256",
          "name": "betPerRoom",
          "type": "uint256"
        },
        {
          "internalType": "uint256",
          "name": "rooms",
          "type": "uint256"
        }
      ],
      "name": "placeCandleFlip",
      "outputs": [],
      "stateMutability": "payable",
      "type": "function"
    },
    {
      "inputs": [
        {
          "internalType": "address",
          "name": "",
          "type": "address"
        },
        {
          "internalType": "uint256",
          "name": "",
          "type": "uint256"
        }
      ],
      "name": "playerActiveCrashBet",
      "outputs": [
        {
          "internalType": "uint256",
          "name": "",
          "type": "uint256"
        }
      ],
      "stateMutability": "view",
      "type": "function"
    },
    {
      "inputs": [
        {
          "internalType": "uint256",
          "name": "betPerRoom",
          "type": "uint256"
        },
        {
          "internalType": "uint256",
          "name": "rooms",
          "type": "uint256"
        }
      ],
      "name": "previewOdds",
      "outputs": [
        {
          "internalType": "uint256",
          "name": "",
          "type": "uint256"
        }
      ],
      "stateMutability": "view",
      "type": "function"
    },
    {
      "inputs": [],
      "name": "reserveGames",
      "outputs": [
        {
          "internalType": "uint256",
          "name": "",
          "type": "uint256"
        }
      ],
      "stateMutability": "view",
      "type": "function"
    },
    {
      "inputs": [
        {
          "internalType": "uint256",
          "name": "gameId",
          "type": "uint256"
        },
        {
          "internalType": "uint256",
          "name": "roomsWon",
          "type": "uint256"
        }
      ],
      "name": "resolveCandleFlip",
      "outputs": [],
      "stateMutability": "nonpayable",
      "type": "function"
    },
    {
      "inputs": [
        {
          "internalType": "uint256",
          "name": "gameId",
          "type": "uint256"
        }
      ],
      "name": "rugGame",
      "outputs": [],
      "stateMutability": "nonpayable",
      "type": "function"
    },
    {
      "inputs": [
        {
          "internalType": "uint256",
          "name": "_minOdds",
          "type": "uint256"
        }
      ],
      "name": "setMinOdds",
      "outputs": [],
      "stateMutability": "nonpayable",
      "type": "function"
    },
    {
      "inputs": [
        {
          "internalType": "uint256",
          "name": "_reserveGames",
          "type": "uint256"
        }
      ],
      "name": "setReserveGames",
      "outputs": [],
      "stateMutability": "nonpayable",
      "type": "function"
    },
    {
      "inputs": [
        {
          "internalType": "address",
          "name": "newOwner",
          "type": "address"
        }
      ],
      "name": "transferOwnership",
      "outputs": [],
      "stateMutability": "nonpayable",
      "type": "function"
    },
    {
      "inputs": [
        {
          "internalType": "uint256",
          "name": "amount",
          "type": "uint256"
        }
      ],
      "name": "withdrawHouse",
      "outputs": [],
      "stateMutability": "nonpayable",
      "type": "function"
    }
  ],
  "bytecode": "0x60806040523480156200001157600080fd5b5060405162001f4038038062001f408339810160408190526200003491620000f7565b671bc16d674ec80000821115620000865760405162461bcd60e51b815260206004820152601160248201527009a929cbe9e8888a6bea89e9ebe90928e9607b1b60448201526064015b60405180910390fd5b60008111620000ca5760405162461bcd60e51b815260206004820152600f60248201526e494e56414c49445f5245534552564560881b60448201526064016200007d565b600480546002939093556003919091556001600160a81b03199091163360ff60a01b19161790556200011c565b600080604083850312156200010b57600080fd5b505080516020909101519092909150565b611e14806200012c6000396000f3fe6080604052600436106101e35760003560e01c8063751d19d711610102578063a968fc1711610095578063ee32f0e711610064578063ee32f0e71461061e578063f17898f414610661578063f1c6e3f714610681578063f2fde38b146106ae57600080fd5b8063a968fc17146105ac578063c936f345146105c2578063c940a3c0146105de578063ed9d256d146105fe57600080fd5b8063809dab6a116100d1578063809dab6a146105145780638da5cb5b14610529578063a3c45a3614610561578063a49f107c1461057457600080fd5b8063751d19d714610443578063772dec30146104bb5780637d9c1dd7146104e85780637ff8bf25146104fe57600080fd5b806359621ea71161017a57806367084eb31161014957806367084eb31461038d5780636782508c146103a357806368c29e5d146103c35780636afbb01b1461043b57600080fd5b806359621ea7146103065780635c975abb146103265780636221305714610347578063624e115a1461037757600080fd5b806323218411116101b657806323218411146102935780632e50467e146102b35780633cdf5074146102c657806345efa214146102e657600080fd5b806302329a29146101e8578063083fae001461020a5780630f8e271014610233578063218ead0e14610273575b600080fd5b3480156101f457600080fd5b50610208610203366004611abd565b6106ce565b005b34801561021657600080fd5b5061022060055481565b6040519081526020015b60405180910390f35b34801561023f57600080fd5b5061026361024e366004611ae6565b600a6020526000908152604090205460ff1681565b604051901515815260200161022a565b34801561027f57600080fd5b5061020861028e366004611aff565b610759565b34801561029f57600080fd5b506102086102ae366004611ae6565b610a47565b6102086102c1366004611aff565b610b8a565b3480156102d257600080fd5b506102086102e1366004611aff565b610e53565b3480156102f257600080fd5b50610220610301366004611ae6565b61106f565b34801561031257600080fd5b50610220610321366004611aff565b61112c565b34801561033257600080fd5b5060045461026390600160a01b900460ff1681565b34801561035357600080fd5b50610263610362366004611ae6565b6000908152600a602052604090205460ff1690565b34801561038357600080fd5b5061022060065481565b34801561039957600080fd5b5061022060005481565b3480156103af57600080fd5b506102086103be366004611ae6565b611159565b3480156103cf57600080fd5b506104286103de366004611ae6565b60086020526000908152604090208054600182015460028301546003840154600485015460058601546006909601546001600160a01b039095169593949293919290919060ff1687565b60405161022a9796959493929190611b4b565b6102086111fa565b34801561044f57600080fd5b506104a861045e366004611ae6565b60076020526000908152604090208054600182015460028301546003840154600485015460058601546006909601546001600160a01b0390951695939492939192909160ff169087565b60405161022a9796959493929190611ba7565b3480156104c757600080fd5b506104db6104d6366004611ae6565b611281565b60405161022a9190611bf2565b3480156104f457600080fd5b5061022060035481565b34801561050a57600080fd5b5061022060015481565b34801561052057600080fd5b50610220611326565b34801561053557600080fd5b50600454610549906001600160a01b031681565b6040516001600160a01b03909116815260200161022a565b61020861056f366004611aff565b61134e565b34801561058057600080fd5b5061022061058f366004611c69565b600960209081526000928352604080842090915290825290205481565b3480156105b857600080fd5b5061022060025481565b3480156105ce57600080fd5b50610220671bc16d674ec8000081565b3480156105ea57600080fd5b506102086105f9366004611ae6565b61160f565b34801561060a57600080fd5b50610208610619366004611ae6565b611761565b34801561062a57600080fd5b50610220610639366004611c69565b6001600160a01b03919091166000908152600960209081526040808320938352929052205490565b34801561066d57600080fd5b5061020861067c366004611ae6565b61180b565b34801561068d57600080fd5b506106a161069c366004611ae6565b6118dd565b60405161022a9190611c93565b3480156106ba57600080fd5b506102086106c9366004611cf2565b61197c565b6004546001600160a01b031633146107015760405162461bcd60e51b81526004016106f890611d0d565b60405180910390fd5b60048054821515600160a01b0260ff60a01b199091161790556040517f0e2fb031ee032dc02d8011dc50b816eb450cf856abd8261680dac74f72165bd29061074e90831515815260200190565b60405180910390a150565b600454600160a01b900460ff16156107835760405162461bcd60e51b81526004016106f890611d30565b336000908152600960209081526040808320858452909152902054806107db5760405162461bcd60e51b815260206004820152600d60248201526c1393d7d050d512559157d09155609a1b60448201526064016106f8565b600081815260076020526040812090600582015460ff16600281111561080357610803611b21565b146108415760405162461bcd60e51b815260206004820152600e60248201526d4245545f4e4f545f41435449564560901b60448201526064016106f8565b6000848152600a602052604090205460ff161561088e5760405162461bcd60e51b815260206004820152600b60248201526a11d0535157d49551d1d15160aa1b60448201526064016106f8565b600083116108d35760405162461bcd60e51b815260206004820152601260248201527124a72b20a624a22fa6aaa62a24a82624a2a960711b60448201526064016106f8565b80600301548310156109195760405162461bcd60e51b815260206004820152600f60248201526e1253959053125117d0d054d213d555608a1b60448201526064016106f8565b600081600301548483600201546109309190611d66565b61093a9190611d7d565b90508060005410156109825760405162461bcd60e51b8152602060048201526011602482015270125394d551919250d251539517d413d3d3607a1b60448201526064016106f8565b6004820184905560058201805460ff19166001179055600682018190553360009081526009602090815260408083208884529091528120819055805482919081906109ce908490611d9f565b9091555050604051339082156108fc029083906000818181858888f19350505050158015610a00573d6000803e3d6000fd5b5060408051828152602081018690523391879186917f909383d932f90a514b5cf2828bb34a86e774817c81baa69226e3e64d0a8731d1910160405180910390a45050505050565b6004546001600160a01b03163314610a715760405162461bcd60e51b81526004016106f890611d0d565b60008111610ab15760405162461bcd60e51b815260206004820152600d60248201526c5a45524f5f574954484452415760981b60448201526064016106f8565b80600154610abf9190611db2565b6000541015610b095760405162461bcd60e51b8152602060048201526016602482015275494e53554646494349454e545f4c495155494449545960501b60448201526064016106f8565b80600080828254610b1a9190611d9f565b90915550506004546040516001600160a01b039091169082156108fc029083906000818181858888f19350505050158015610b59573d6000803e3d6000fd5b506040518181527fd945ce854e54b4e7a87ddd5727e4dfd5c8e05df22e862ef99562e994c99158af9060200161074e565b600454600160a01b900460ff1615610bb45760405162461bcd60e51b81526004016106f890611d30565b60003411610bef5760405162461bcd60e51b815260206004820152600860248201526716915493d7d0915560c21b60448201526064016106f8565b60008111610c345760405162461bcd60e51b815260206004820152601260248201527124a72b20a624a22fa6aaa62a24a82624a2a960711b60448201526064016106f8565b6000828152600a602052604090205460ff1615610c815760405162461bcd60e51b815260206004820152600b60248201526a11d0535157d49551d1d15160aa1b60448201526064016106f8565b33600090815260096020908152604080832085845290915290205415610cde5760405162461bcd60e51b8152602060048201526012602482015271135554d517d0d054d213d55517d1925494d560721b60448201526064016106f8565b60058054906000610cee83611dc5565b91905055506040518060e00160405280336001600160a01b031681526020018381526020013481526020018281526020016000815260200160006002811115610d3957610d39611b21565b81526000602091820181905260058054825260078352604091829020845181546001600160a01b0319166001600160a01b039091161781559284015160018085019190915591840151600280850191909155606085015160038501556080850151600485015560a085015191840180549293909260ff1916918490811115610dc357610dc3611b21565b021790555060c0919091015160069091015560055433600090815260096020908152604080832086845290915281209190915580543491908190610e08908490611db2565b909155505060055460408051348152602081018490523392859290917f9411f9645210c20cc639f4d0afcd826381e380cefd2df2a5ed2fc6ca1a882f76910160405180910390a45050565b6004546001600160a01b03163314610e7d5760405162461bcd60e51b81526004016106f890611d0d565b600082815260086020526040812090600682015460ff166001811115610ea557610ea5611b21565b14610ee05760405162461bcd60e51b815260206004820152600b60248201526a4e4f545f50454e44494e4760a81b60448201526064016106f8565b8060020154821115610f225760405162461bcd60e51b815260206004820152600b60248201526a24a72b20a624a22faba4a760a91b60448201526064016106f8565b6000670de0b6b3a76400008260040154848460010154610f429190611d66565b610f4c9190611d66565b610f569190611d7d565b9050816003015460016000828254610f6e9190611d9f565b90915550506005820183905560068201805460ff19166001179055600054811115610fcf5760405162461bcd60e51b8152602060048201526011602482015270125394d551919250d251539517d413d3d3607a1b60448201526064016106f8565b80600080828254610fe09190611d9f565b909155505081546040516001600160a01b039091169082156108fc029083906000818181858888f1935050505015801561101e573d6000803e3d6000fd5b50815460408051858152602081018490526001600160a01b039092169186917fe7bc4aefbcfbfe7ca59f0f26d277c5caae451f4df795d101bce51de8faaf136e91015b60405180910390a350505050565b600080600354836110809190611d66565b905060015460005411611097575050600254919050565b60006001546000546110a99190611d9f565b905060008282106110c35750670de0b6b3a76400006110e3565b826110d683670de0b6b3a7640000611d66565b6110e09190611d7d565b90505b6000670de0b6b3a764000061110083671bc16d674ec80000611d66565b61110a9190611d7d565b9050600254811015611123575050600254949350505050565b95945050505050565b6000806111398385611d66565b611144906002611d66565b905061114f8161106f565b9150505b92915050565b6004546001600160a01b031633146111835760405162461bcd60e51b81526004016106f890611d0d565b600081116111c55760405162461bcd60e51b815260206004820152600f60248201526e494e56414c49445f5245534552564560881b60448201526064016106f8565b60038190556040518181527f22e75b79d747aa1d63f6f72a2d106349b8276dcfe2d65845e77acd1bc30aca1f9060200161074e565b600034116112365760405162461bcd60e51b815260206004820152600960248201526816915493d7d195539160ba1b60448201526064016106f8565b346000808282546112479190611db2565b90915550506040513481527f73deb9e7af4f8bf96cc7c418c08e939dac5b9dcfde84519e70ca1ce08b9974189060200160405180910390a1565b611289611a10565b600082815260076020908152604091829020825160e08101845281546001600160a01b0316815260018201549281019290925260028082015493830193909352600381015460608301526004810154608083015260058101549192909160a084019160ff9091169081111561130057611300611b21565b600281111561131157611311611b21565b81526020016006820154815250509050919050565b6000600154600054116113395750600090565b6001546000546113499190611d9f565b905090565b600454600160a01b900460ff16156113785760405162461bcd60e51b81526004016106f890611d30565b600081116113b85760405162461bcd60e51b815260206004820152600d60248201526c494e56414c49445f524f4f4d5360981b60448201526064016106f8565b600082116113f65760405162461bcd60e51b815260206004820152600b60248201526a1253959053125117d0915560aa1b60448201526064016106f8565b6114008183611d66565b341461143a5760405162461bcd60e51b81526020600482015260096024820152684241445f56414c554560b81b60448201526064016106f8565b60006114468284611d66565b611451906002611d66565b9050600061145e8261106f565b90506002548110156114a15760405162461bcd60e51b815260206004820152600c60248201526b4f4444535f544f4f5f4c4f5760a01b60448201526064016106f8565b81600160008282546114b39190611db2565b9091555050600680549060006114c883611dc5565b91905055506040518060e00160405280336001600160a01b03168152602001858152602001848152602001838152602001828152602001600081526020016000600181111561151957611519611b21565b905260068054600090815260086020908152604091829020845181546001600160a01b0319166001600160a01b0390911617815590840151600180830191909155918401516002820155606084015160038201556080840151600482015560a0840151600582015560c08401519281018054919392909160ff19169083818111156115a6576115a6611b21565b0217905550905050346000808282546115bf9190611db2565b90915550506006546040805186815260208101869052908101849052606081018390523391907fdda0dc80b359becf7e99611be0d17b5fa667e34ea5ee6eadb7f135a01d27fc0c90608001611061565b6004546001600160a01b031633146116395760405162461bcd60e51b81526004016106f890611d0d565b600081815260076020526040812090600582015460ff16600281111561166157611661611b21565b1461169f5760405162461bcd60e51b815260206004820152600e60248201526d4245545f4e4f545f41435449564560901b60448201526064016106f8565b60018101546000908152600a602052604090205460ff166116f45760405162461bcd60e51b815260206004820152600f60248201526e11d0535157d393d517d49551d1d151608a1b60448201526064016106f8565b60058101805460ff1916600217905580546001600160a01b031660009081526009602090815260408083206001850154845290915290205482900361175d5780546001600160a01b03166000908152600960209081526040808320600185015484529091528120555b5050565b6004546001600160a01b0316331461178b5760405162461bcd60e51b81526004016106f890611d0d565b671bc16d674ec800008111156117d65760405162461bcd60e51b815260206004820152601060248201526f494e56414c49445f4d494e5f4f44445360801b60448201526064016106f8565b60028190556040518181527fe9605597ab98c1abdbcb8215bee635fece9b544ec372c15f5bf34375560c9a6c9060200161074e565b6004546001600160a01b031633146118355760405162461bcd60e51b81526004016106f890611d0d565b6000818152600a602052604090205460ff16156118855760405162461bcd60e51b815260206004820152600e60248201526d1053149150511657d49551d1d15160921b60448201526064016106f8565b6000818152600a602052604090819020805460ff191660011790555181907f90e455ed14672922372cce107752e133d7a32dd0e25d51d60494787c9a8f267a906118d29042815260200190565b60405180910390a250565b6118e5611a67565b600082815260086020908152604091829020825160e08101845281546001600160a01b03168152600180830154938201939093526002820154938101939093526003810154606084015260048101546080840152600581015460a08401526006810154909160c084019160ff169081111561196257611962611b21565b600181111561197357611973611b21565b90525092915050565b6004546001600160a01b031633146119a65760405162461bcd60e51b81526004016106f890611d0d565b6001600160a01b0381166119ee5760405162461bcd60e51b815260206004820152600f60248201526e494e56414c49445f4144445245535360881b60448201526064016106f8565b600480546001600160a01b0319166001600160a01b0392909216919091179055565b6040518060e0016040528060006001600160a01b031681526020016000815260200160008152602001600081526020016000815260200160006002811115611a5a57611a5a611b21565b8152602001600081525090565b6040518060e0016040528060006001600160a01b03168152602001600081526020016000815260200160008152602001600081526020016000815260200160006001811115611ab857611ab8611b21565b905290565b600060208284031215611acf57600080fd5b81358015158114611adf57600080fd5b9392505050565b600060208284031215611af857600080fd5b5035919050565b60008060408385031215611b1257600080fd5b50508035926020909101359150565b634e487b7160e01b600052602160045260246000fd5b60028110611b4757611b47611b21565b9052565b6001600160a01b03881681526020810187905260408101869052606081018590526080810184905260a0810183905260e08101611b8b60c0830184611b37565b98975050505050505050565b60038110611b4757611b47611b21565b6001600160a01b03881681526020810187905260408101869052606081018590526080810184905260e08101611be060a0830185611b97565b8260c083015298975050505050505050565b81516001600160a01b031681526020808301519082015260408083015190820152606080830151908201526080808301519082015260a08281015160e0830191611c3e90840182611b97565b5060c092830151919092015290565b80356001600160a01b0381168114611c6457600080fd5b919050565b60008060408385031215611c7c57600080fd5b611c8583611c4d565b946020939093013593505050565b600060e08201905060018060a01b0383511682526020830151602083015260408301516040830152606083015160608301526080830151608083015260a083015160a083015260c0830151611ceb60c0840182611b37565b5092915050565b600060208284031215611d0457600080fd5b611adf82611c4d565b6020808252600990820152682727aa2fa7aba722a960b91b604082015260600190565b60208082526006908201526514105554d15160d21b604082015260600190565b634e487b7160e01b600052601160045260246000fd5b808202811582820484141761115357611153611d50565b600082611d9a57634e487b7160e01b600052601260045260246000fd5b500490565b8181038181111561115357611153611d50565b8082018082111561115357611153611d50565b600060018201611dd757611dd7611d50565b506001019056fea264697066735822122099d5c0065120b6107b5780f19e783f5998484c1782f8584f2934c4a76ac45acc64736f6c63430008180033",
  "linkReferences": {},
  "deployedLinkReferences": {}
}